{
  "contractName": "BuyCars",
  "abi": [
    {
      "inputs": [
        {
          "internalType": "address",
          "name": "_btkaddr",
          "type": "address"
        }
      ],
      "stateMutability": "nonpayable",
      "type": "constructor"
    },
    {
      "anonymous": false,
      "inputs": [
        {
          "indexed": false,
          "internalType": "uint256",
          "name": "_tokens",
          "type": "uint256"
        }
      ],
      "name": "createOrderEvent",
      "type": "event"
    },
    {
      "inputs": [],
      "name": "CarID",
      "outputs": [
        {
          "internalType": "uint256",
          "name": "",
          "type": "uint256"
        }
      ],
      "stateMutability": "view",
      "type": "function",
      "constant": true
    },
    {
      "inputs": [
        {
          "internalType": "uint256",
          "name": "",
          "type": "uint256"
        }
      ],
      "name": "CarList",
      "outputs": [
        {
          "internalType": "uint256",
          "name": "price",
          "type": "uint256"
        },
        {
          "internalType": "string",
          "name": "brand",
          "type": "string"
        },
        {
          "internalType": "string",
          "name": "model",
          "type": "string"
        }
      ],
      "stateMutability": "view",
      "type": "function",
      "constant": true
    },
    {
      "inputs": [
        {
          "internalType": "uint256",
          "name": "",
          "type": "uint256"
        }
      ],
      "name": "Cars",
      "outputs": [
        {
          "internalType": "uint256",
          "name": "price",
          "type": "uint256"
        },
        {
          "internalType": "string",
          "name": "brand",
          "type": "string"
        },
        {
          "internalType": "string",
          "name": "model",
          "type": "string"
        }
      ],
      "stateMutability": "view",
      "type": "function",
      "constant": true
    },
    {
      "inputs": [],
      "name": "OrderID",
      "outputs": [
        {
          "internalType": "uint256",
          "name": "",
          "type": "uint256"
        }
      ],
      "stateMutability": "view",
      "type": "function",
      "constant": true
    },
    {
      "inputs": [
        {
          "internalType": "uint256",
          "name": "",
          "type": "uint256"
        }
      ],
      "name": "OrderList",
      "outputs": [
        {
          "internalType": "uint256",
          "name": "userID",
          "type": "uint256"
        },
        {
          "internalType": "uint256",
          "name": "carID",
          "type": "uint256"
        },
        {
          "internalType": "uint256",
          "name": "date",
          "type": "uint256"
        },
        {
          "internalType": "bool",
          "name": "active",
          "type": "bool"
        },
        {
          "internalType": "uint256",
          "name": "tokens",
          "type": "uint256"
        }
      ],
      "stateMutability": "view",
      "type": "function",
      "constant": true
    },
    {
      "inputs": [
        {
          "internalType": "uint256",
          "name": "",
          "type": "uint256"
        }
      ],
      "name": "Orders",
      "outputs": [
        {
          "internalType": "uint256",
          "name": "userID",
          "type": "uint256"
        },
        {
          "internalType": "uint256",
          "name": "carID",
          "type": "uint256"
        },
        {
          "internalType": "uint256",
          "name": "date",
          "type": "uint256"
        },
        {
          "internalType": "bool",
          "name": "active",
          "type": "bool"
        },
        {
          "internalType": "uint256",
          "name": "tokens",
          "type": "uint256"
        }
      ],
      "stateMutability": "view",
      "type": "function",
      "constant": true
    },
    {
      "inputs": [
        {
          "internalType": "uint256",
          "name": "",
          "type": "uint256"
        }
      ],
      "name": "ServiceOrderList",
      "outputs": [
        {
          "internalType": "address",
          "name": "userAddress",
          "type": "address"
        },
        {
          "internalType": "uint256",
          "name": "price",
          "type": "uint256"
        },
        {
          "internalType": "uint256",
          "name": "date",
          "type": "uint256"
        }
      ],
      "stateMutability": "view",
      "type": "function",
      "constant": true
    },
    {
      "inputs": [],
      "name": "ServicesOrderID",
      "outputs": [
        {
          "internalType": "uint256",
          "name": "",
          "type": "uint256"
        }
      ],
      "stateMutability": "view",
      "type": "function",
      "constant": true
    },
    {
      "inputs": [
        {
          "internalType": "uint256",
          "name": "",
          "type": "uint256"
        }
      ],
      "name": "ServicesOrders",
      "outputs": [
        {
          "internalType": "address",
          "name": "userAddress",
          "type": "address"
        },
        {
          "internalType": "uint256",
          "name": "price",
          "type": "uint256"
        },
        {
          "internalType": "uint256",
          "name": "date",
          "type": "uint256"
        }
      ],
      "stateMutability": "view",
      "type": "function",
      "constant": true
    },
    {
      "inputs": [],
      "name": "UserID",
      "outputs": [
        {
          "internalType": "uint256",
          "name": "",
          "type": "uint256"
        }
      ],
      "stateMutability": "view",
      "type": "function",
      "constant": true
    },
    {
      "inputs": [
        {
          "internalType": "uint256",
          "name": "",
          "type": "uint256"
        }
      ],
      "name": "UserIDs",
      "outputs": [
        {
          "internalType": "address",
          "name": "",
          "type": "address"
        }
      ],
      "stateMutability": "view",
      "type": "function",
      "constant": true
    },
    {
      "inputs": [
        {
          "internalType": "uint256",
          "name": "",
          "type": "uint256"
        }
      ],
      "name": "UserList",
      "outputs": [
        {
          "internalType": "uint256",
          "name": "userID",
          "type": "uint256"
        },
        {
          "internalType": "string",
          "name": "name",
          "type": "string"
        },
        {
          "internalType": "uint256",
          "name": "tokens",
          "type": "uint256"
        }
      ],
      "stateMutability": "view",
      "type": "function",
      "constant": true
    },
    {
      "inputs": [
        {
          "internalType": "address",
          "name": "",
          "type": "address"
        }
      ],
      "name": "Users",
      "outputs": [
        {
          "internalType": "uint256",
          "name": "userID",
          "type": "uint256"
        },
        {
          "internalType": "string",
          "name": "name",
          "type": "string"
        },
        {
          "internalType": "uint256",
          "name": "tokens",
          "type": "uint256"
        }
      ],
      "stateMutability": "view",
      "type": "function",
      "constant": true
    },
    {
      "inputs": [],
      "name": "accounter",
      "outputs": [
        {
          "internalType": "address",
          "name": "",
          "type": "address"
        }
      ],
      "stateMutability": "view",
      "type": "function",
      "constant": true
    },
    {
      "inputs": [],
      "name": "bonusTokenAddress",
      "outputs": [
        {
          "internalType": "address",
          "name": "",
          "type": "address"
        }
      ],
      "stateMutability": "view",
      "type": "function",
      "constant": true
    },
    {
      "inputs": [],
      "name": "owner",
      "outputs": [
        {
          "internalType": "address",
          "name": "",
          "type": "address"
        }
      ],
      "stateMutability": "view",
      "type": "function",
      "constant": true
    },
    {
      "inputs": [
        {
          "internalType": "address",
          "name": "_address",
          "type": "address"
        }
      ],
      "name": "setBonusTokenAddress",
      "outputs": [],
      "stateMutability": "nonpayable",
      "type": "function"
    },
    {
      "inputs": [
        {
          "internalType": "address",
          "name": "_address",
          "type": "address"
        }
      ],
      "name": "addAccounter",
      "outputs": [],
      "stateMutability": "nonpayable",
      "type": "function"
    },
    {
      "inputs": [
        {
          "internalType": "string",
          "name": "_name",
          "type": "string"
        },
        {
          "internalType": "address",
          "name": "_userAddress",
          "type": "address"
        }
      ],
      "name": "addUser",
      "outputs": [],
      "stateMutability": "nonpayable",
      "type": "function"
    },
    {
      "inputs": [
        {
          "internalType": "string",
          "name": "_brand",
          "type": "string"
        },
        {
          "internalType": "string",
          "name": "_model",
          "type": "string"
        },
        {
          "internalType": "uint256",
          "name": "_price",
          "type": "uint256"
        }
      ],
      "name": "addCar",
      "outputs": [],
      "stateMutability": "nonpayable",
      "type": "function"
    },
    {
      "inputs": [],
      "name": "viewCarsList",
      "outputs": [
        {
          "components": [
            {
              "internalType": "uint256",
              "name": "price",
              "type": "uint256"
            },
            {
              "internalType": "string",
              "name": "brand",
              "type": "string"
            },
            {
              "internalType": "string",
              "name": "model",
              "type": "string"
            }
          ],
          "internalType": "struct BuyCars.car[]",
          "name": "",
          "type": "tuple[]"
        }
      ],
      "stateMutability": "view",
      "type": "function",
      "constant": true
    },
    {
      "inputs": [],
      "name": "viewUserList",
      "outputs": [
        {
          "components": [
            {
              "internalType": "uint256",
              "name": "userID",
              "type": "uint256"
            },
            {
              "internalType": "string",
              "name": "name",
              "type": "string"
            },
            {
              "internalType": "uint256",
              "name": "tokens",
              "type": "uint256"
            },
            {
              "internalType": "uint256[]",
              "name": "orders",
              "type": "uint256[]"
            }
          ],
          "internalType": "struct BuyCars.user[]",
          "name": "",
          "type": "tuple[]"
        }
      ],
      "stateMutability": "view",
      "type": "function",
      "constant": true
    },
    {
      "inputs": [],
      "name": "viewOrderList",
      "outputs": [
        {
          "components": [
            {
              "internalType": "uint256",
              "name": "userID",
              "type": "uint256"
            },
            {
              "internalType": "uint256",
              "name": "carID",
              "type": "uint256"
            },
            {
              "internalType": "uint256",
              "name": "date",
              "type": "uint256"
            },
            {
              "internalType": "bool",
              "name": "active",
              "type": "bool"
            },
            {
              "internalType": "uint256",
              "name": "tokens",
              "type": "uint256"
            }
          ],
          "internalType": "struct BuyCars.order[]",
          "name": "",
          "type": "tuple[]"
        }
      ],
      "stateMutability": "view",
      "type": "function",
      "constant": true
    },
    {
      "inputs": [],
      "name": "viewServiceOrderList",
      "outputs": [
        {
          "components": [
            {
              "internalType": "address",
              "name": "userAddress",
              "type": "address"
            },
            {
              "internalType": "uint256",
              "name": "price",
              "type": "uint256"
            },
            {
              "internalType": "uint256",
              "name": "date",
              "type": "uint256"
            }
          ],
          "internalType": "struct BuyCars.serviceOrder[]",
          "name": "",
          "type": "tuple[]"
        }
      ],
      "stateMutability": "view",
      "type": "function",
      "constant": true
    },
    {
      "inputs": [
        {
          "internalType": "uint256",
          "name": "_car_id",
          "type": "uint256"
        },
        {
          "internalType": "uint256",
          "name": "_user_id",
          "type": "uint256"
        }
      ],
      "name": "createOrder",
      "outputs": [],
      "stateMutability": "nonpayable",
      "type": "function"
    },
    {
      "inputs": [
        {
          "internalType": "address",
          "name": "_address",
          "type": "address"
        },
        {
          "internalType": "uint256",
          "name": "_price",
          "type": "uint256"
        }
      ],
      "name": "createServiceOrder",
      "outputs": [],
      "stateMutability": "nonpayable",
      "type": "function"
    },
    {
      "inputs": [
        {
          "internalType": "uint256",
          "name": "_servOrder_id",
          "type": "uint256"
        }
      ],
      "name": "payByTokens",
      "outputs": [],
      "stateMutability": "nonpayable",
      "type": "function"
    }
  ],
  "bytecode": "0x60806040523480156200001157600080fd5b506040516200344e3803806200344e833981810160405281019062000037919062000137565b336000806101000a81548173ffffffffffffffffffffffffffffffffffffffff021916908373ffffffffffffffffffffffffffffffffffffffff16021790555080600160006101000a81548173ffffffffffffffffffffffffffffffffffffffff021916908373ffffffffffffffffffffffffffffffffffffffff16021790555060008054906101000a900473ffffffffffffffffffffffffffffffffffffffff16600260006101000a81548173ffffffffffffffffffffffffffffffffffffffff021916908373ffffffffffffffffffffffffffffffffffffffff16021790555050620001bc565b6000815190506200013181620001a2565b92915050565b60006020828403121562000150576200014f6200019d565b5b6000620001608482850162000120565b91505092915050565b600062000176826200017d565b9050919050565b600073ffffffffffffffffffffffffffffffffffffffff82169050919050565b600080fd5b620001ad8162000169565b8114620001b957600080fd5b50565b61328280620001cc6000396000f3fe608060405234801561001057600080fd5b50600436106101a95760003560e01c80638fb326f2116100f9578063baf49c4a11610097578063e4f2ee7811610071578063e4f2ee78146104e0578063ea3e7909146104fe578063eaaedd591461051c578063f40e03c21461054e576101a9565b8063baf49c4a14610474578063bd5c6a89146104a6578063cfcdf443146104c2576101a9565b806399b956a0116100d357806399b956a0146103d65780639aadee0214610408578063a94661e314610426578063babe165514610442576101a9565b80638fb326f214610354578063907256ea146103885780639583daf5146103a4576101a9565b80633a07f8d3116101665780637331d7e9116101405780637331d7e9146102e057806379109baa146102fe578063864a0d0a1461031a5780638da5cb5b14610336576101a9565b80633a07f8d3146102865780634702272b146102a4578063663911e9146102c2576101a9565b80630212d0b9146101ae57806305574ee9146101ca57806306b099af146101e65780630fe579c01461021a578063193a7e40146102385780632dc7e90114610256575b600080fd5b6101c860048036038101906101c391906124f1565b610580565b005b6101e460048036038101906101df9190612466565b61076a565b005b61020060048036038101906101fb91906124f1565b61091a565b604051610211959493929190612c67565b60405180910390f35b61022261096d565b60405161022f9190612b67565b60405180910390f35b610240610aca565b60405161024d9190612a4f565b60405180910390f35b610270600480360381019061026b91906124f1565b610af0565b60405161027d9190612a4f565b60405180910390f35b61028e610b23565b60405161029b9190612bc9565b60405180910390f35b6102ac610b29565b6040516102b99190612b01565b60405180910390f35b6102ca610cb6565b6040516102d79190612b45565b60405180910390f35b6102e8610d7f565b6040516102f59190612bc9565b60405180910390f35b6103186004803603810190610313919061251e565b610d85565b005b610334600480360381019061032f919061240a565b611189565b005b61033e6113e0565b60405161034b9190612a4f565b60405180910390f35b61036e600480360381019061036991906124f1565b611404565b60405161037f959493929190612c67565b60405180910390f35b6103a2600480360381019061039d9190612370565b611447565b005b6103be60048036038101906103b991906124f1565b611519565b6040516103cd93929190612be4565b60405180910390f35b6103f060048036038101906103eb9190612370565b611663565b6040516103ff93929190612c29565b60405180910390f35b610410611715565b60405161041d9190612bc9565b60405180910390f35b610440600480360381019061043b9190612370565b61171b565b005b61045c600480360381019061045791906124f1565b6117ed565b60405161046b93929190612c29565b60405180910390f35b61048e600480360381019061048991906124f1565b6118af565b60405161049d93929190612aca565b60405180910390f35b6104c060048036038101906104bb919061239d565b6118f9565b005b6104ca611c60565b6040516104d79190612a4f565b60405180910390f35b6104e8611c86565b6040516104f59190612b23565b60405180910390f35b610506611d28565b6040516105139190612bc9565b60405180910390f35b610536600480360381019061053191906124f1565b611d2e565b60405161054593929190612aca565b60405180910390f35b610568600480360381019061056391906124f1565b611d88565b60405161057793929190612be4565b60405180910390f35b6000600f600083815260200190815260200160002060010154905080600b60003373ffffffffffffffffffffffffffffffffffffffff1673ffffffffffffffffffffffffffffffffffffffff168152602001908152602001600020600201541015610620576040517f08c379a000000000000000000000000000000000000000000000000000000000815260040161061790612ba9565b60405180910390fd5b6000600160009054906101000a900473ffffffffffffffffffffffffffffffffffffffff1690508073ffffffffffffffffffffffffffffffffffffffff166323b872dd33600260009054906101000a900473ffffffffffffffffffffffffffffffffffffffff16670de0b6b3a76400008661069b9190612ee1565b6040518463ffffffff1660e01b81526004016106b993929190612a6a565b602060405180830381600087803b1580156106d357600080fd5b505af11580156106e7573d6000803e3d6000fd5b505050506040513d601f19601f8201168201806040525081019061070b91906123dd565b5081600b60003373ffffffffffffffffffffffffffffffffffffffff1673ffffffffffffffffffffffffffffffffffffffff168152602001908152602001600020600201600082825461075e9190612f3b565b92505081905550505050565b3373ffffffffffffffffffffffffffffffffffffffff1660008054906101000a900473ffffffffffffffffffffffffffffffffffffffff1673ffffffffffffffffffffffffffffffffffffffff16146107f8576040517f08c379a00000000000000000000000000000000000000000000000000000000081526004016107ef90612b89565b60405180910390fd5b60016004600082825461080b9190612e5a565b9250508190555082600d60006004548152602001908152602001600020600101908051906020019061083e9291906120f2565b5081600d60006004548152602001908152602001600020600201908051906020019061086b9291906120f2565b5080600d60006004548152602001908152602001600020600001819055506007600d6000600454815260200190815260200160002090806001815401808255809150506001900390600052602060002090600302016000909190919091506000820154816000015560018201816001019080546108e790612ff9565b6108f2929190612178565b50600282018160020190805461090790612ff9565b610912929190612178565b505050505050565b6009818154811061092a57600080fd5b90600052602060002090600502016000915090508060000154908060010154908060020154908060030160009054906101000a900460ff16908060040154905085565b60606008805480602002602001604051908101604052809291908181526020016000905b82821015610ac15783829060005260206000209060040201604051806080016040529081600082015481526020016001820180546109ce90612ff9565b80601f01602080910402602001604051908101604052809291908181526020018280546109fa90612ff9565b8015610a475780601f10610a1c57610100808354040283529160200191610a47565b820191906000526020600020905b815481529060010190602001808311610a2a57829003601f168201915b505050505081526020016002820154815260200160038201805480602002602001604051908101604052809291908181526020018280548015610aa957602002820191906000526020600020905b815481526020019060010190808311610a95575b50505050508152505081526020019060010190610991565b50505050905090565b600260009054906101000a900473ffffffffffffffffffffffffffffffffffffffff1681565b600c6020528060005260406000206000915054906101000a900473ffffffffffffffffffffffffffffffffffffffff1681565b60065481565b60606007805480602002602001604051908101604052809291908181526020016000905b82821015610cad578382906000526020600020906003020160405180606001604052908160008201548152602001600182018054610b8a90612ff9565b80601f0160208091040260200160405190810160405280929190818152602001828054610bb690612ff9565b8015610c035780601f10610bd857610100808354040283529160200191610c03565b820191906000526020600020905b815481529060010190602001808311610be657829003601f168201915b50505050508152602001600282018054610c1c90612ff9565b80601f0160208091040260200160405190810160405280929190818152602001828054610c4890612ff9565b8015610c955780601f10610c6a57610100808354040283529160200191610c95565b820191906000526020600020905b815481529060010190602001808311610c7857829003601f168201915b50505050508152505081526020019060010190610b4d565b50505050905090565b6060600a805480602002602001604051908101604052809291908181526020016000905b82821015610d7657838290600052602060002090600302016040518060600160405290816000820160009054906101000a900473ffffffffffffffffffffffffffffffffffffffff1673ffffffffffffffffffffffffffffffffffffffff1673ffffffffffffffffffffffffffffffffffffffff1681526020016001820154815260200160028201548152505081526020019060010190610cda565b50505050905090565b60055481565b3373ffffffffffffffffffffffffffffffffffffffff1660008054906101000a900473ffffffffffffffffffffffffffffffffffffffff1673ffffffffffffffffffffffffffffffffffffffff1614610e13576040517f08c379a0000000000000000000000000000000000000000000000000000000008152600401610e0a90612b89565b60405180910390fd5b600160056000828254610e269190612e5a565b9250508190555080600e600060055481526020019081526020016000206000018190555081600e600060055481526020019081526020016000206001018190555042600e60006005548152602001908152602001600020600201819055506001600e6000600554815260200190815260200160002060030160006101000a81548160ff0219169083151502179055506000600c600083815260200190815260200160002060009054906101000a900473ffffffffffffffffffffffffffffffffffffffff169050600b60008273ffffffffffffffffffffffffffffffffffffffff1673ffffffffffffffffffffffffffffffffffffffff168152602001908152602001600020600301600554908060018154018082558091505060019003906000526020600020016000909190919091505560006064600d600086815260200190815260200160002060000154610f7d9190612eb0565b905080600e600060055481526020019081526020016000206004018190555080600b60008473ffffffffffffffffffffffffffffffffffffffff1673ffffffffffffffffffffffffffffffffffffffff168152602001908152602001600020600201819055506000600160009054906101000a900473ffffffffffffffffffffffffffffffffffffffff1690508073ffffffffffffffffffffffffffffffffffffffff166340c10f1984670de0b6b3a76400008561103b9190612ee1565b6040518363ffffffff1660e01b8152600401611058929190612aa1565b602060405180830381600087803b15801561107257600080fd5b505af1158015611086573d6000803e3d6000fd5b505050506040513d601f19601f820116820180604052508101906110aa91906123dd565b507f69779996a991d45551f764f92d74f416ae6ccbff1babfa7b555efb59cde59adf826040516110da9190612bc9565b60405180910390a16009600e6000600554815260200190815260200160002090806001815401808255809150506001900390600052602060002090600502016000909190919091506000820154816000015560018201548160010155600282015481600201556003820160009054906101000a900460ff168160030160006101000a81548160ff02191690831515021790555060048201548160040155505061118284611ec2565b5050505050565b3373ffffffffffffffffffffffffffffffffffffffff1660008054906101000a900473ffffffffffffffffffffffffffffffffffffffff1673ffffffffffffffffffffffffffffffffffffffff1614611217576040517f08c379a000000000000000000000000000000000000000000000000000000000815260040161120e90612b89565b60405180910390fd5b60016003600082825461122a9190612e5a565b9250508190555081600b60008373ffffffffffffffffffffffffffffffffffffffff1673ffffffffffffffffffffffffffffffffffffffff16815260200190815260200160002060010190805190602001906112879291906120f2565b50600354600b60008373ffffffffffffffffffffffffffffffffffffffff1673ffffffffffffffffffffffffffffffffffffffff1681526020019081526020016000206000018190555080600c6000600354815260200190815260200160002060006101000a81548173ffffffffffffffffffffffffffffffffffffffff021916908373ffffffffffffffffffffffffffffffffffffffff1602179055506008600b60008373ffffffffffffffffffffffffffffffffffffffff1673ffffffffffffffffffffffffffffffffffffffff16815260200190815260200160002090806001815401808255809150506001900390600052602060002090600402016000909190919091506000820154816000015560018201816001019080546113ad90612ff9565b6113b8929190612178565b506002820154816002015560038201816003019080546113d9929190612205565b5050505050565b60008054906101000a900473ffffffffffffffffffffffffffffffffffffffff1681565b600e6020528060005260406000206000915090508060000154908060010154908060020154908060030160009054906101000a900460ff16908060040154905085565b3373ffffffffffffffffffffffffffffffffffffffff1660008054906101000a900473ffffffffffffffffffffffffffffffffffffffff1673ffffffffffffffffffffffffffffffffffffffff16146114d5576040517f08c379a00000000000000000000000000000000000000000000000000000000081526004016114cc90612b89565b60405180910390fd5b80600260006101000a81548173ffffffffffffffffffffffffffffffffffffffff021916908373ffffffffffffffffffffffffffffffffffffffff16021790555050565b6007818154811061152957600080fd5b906000526020600020906003020160009150905080600001549080600101805461155290612ff9565b80601f016020809104026020016040519081016040528092919081815260200182805461157e90612ff9565b80156115cb5780601f106115a0576101008083540402835291602001916115cb565b820191906000526020600020905b8154815290600101906020018083116115ae57829003601f168201915b5050505050908060020180546115e090612ff9565b80601f016020809104026020016040519081016040528092919081815260200182805461160c90612ff9565b80156116595780601f1061162e57610100808354040283529160200191611659565b820191906000526020600020905b81548152906001019060200180831161163c57829003601f168201915b5050505050905083565b600b60205280600052604060002060009150905080600001549080600101805461168c90612ff9565b80601f01602080910402602001604051908101604052809291908181526020018280546116b890612ff9565b80156117055780601f106116da57610100808354040283529160200191611705565b820191906000526020600020905b8154815290600101906020018083116116e857829003601f168201915b5050505050908060020154905083565b60035481565b3373ffffffffffffffffffffffffffffffffffffffff1660008054906101000a900473ffffffffffffffffffffffffffffffffffffffff1673ffffffffffffffffffffffffffffffffffffffff16146117a9576040517f08c379a00000000000000000000000000000000000000000000000000000000081526004016117a090612b89565b60405180910390fd5b80600160006101000a81548173ffffffffffffffffffffffffffffffffffffffff021916908373ffffffffffffffffffffffffffffffffffffffff16021790555050565b600881815481106117fd57600080fd5b906000526020600020906004020160009150905080600001549080600101805461182690612ff9565b80601f016020809104026020016040519081016040528092919081815260200182805461185290612ff9565b801561189f5780601f106118745761010080835404028352916020019161189f565b820191906000526020600020905b81548152906001019060200180831161188257829003601f168201915b5050505050908060020154905083565b600f6020528060005260406000206000915090508060000160009054906101000a900473ffffffffffffffffffffffffffffffffffffffff16908060010154908060020154905083565b3373ffffffffffffffffffffffffffffffffffffffff1660008054906101000a900473ffffffffffffffffffffffffffffffffffffffff1673ffffffffffffffffffffffffffffffffffffffff1614611987576040517f08c379a000000000000000000000000000000000000000000000000000000000815260040161197e90612b89565b60405180910390fd5b60016006600082825461199a9190612e5a565b9250508190555081600f6000600654815260200190815260200160002060000160006101000a81548173ffffffffffffffffffffffffffffffffffffffff021916908373ffffffffffffffffffffffffffffffffffffffff16021790555080600f600060065481526020019081526020016000206001018190555042600f6000600654815260200190815260200160002060020181905550600a600f6000600654815260200190815260200160002090806001815401808255809150506001900390600052602060002090600302016000909190919091506000820160009054906101000a900473ffffffffffffffffffffffffffffffffffffffff168160000160006101000a81548173ffffffffffffffffffffffffffffffffffffffff021916908373ffffffffffffffffffffffffffffffffffffffff16021790555060018201548160010155600282015481600201555050600160009054906101000a900473ffffffffffffffffffffffffffffffffffffffff1673ffffffffffffffffffffffffffffffffffffffff16639dc29fac83670de0b6b3a764000084611b429190612ee1565b6040518363ffffffff1660e01b8152600401611b5f929190612aa1565b602060405180830381600087803b158015611b7957600080fd5b505af1158015611b8d573d6000803e3d6000fd5b505050506040513d601f19601f82011682018060405250810190611bb191906123dd565b5080600b60008473ffffffffffffffffffffffffffffffffffffffff1673ffffffffffffffffffffffffffffffffffffffff1681526020019081526020016000206002016000828254611c049190612f3b565b925050819055506000600b60008473ffffffffffffffffffffffffffffffffffffffff1673ffffffffffffffffffffffffffffffffffffffff168152602001908152602001600020600001549050611c5b81611ec2565b505050565b600160009054906101000a900473ffffffffffffffffffffffffffffffffffffffff1681565b60606009805480602002602001604051908101604052809291908181526020016000905b82821015611d1f57838290600052602060002090600502016040518060a00160405290816000820154815260200160018201548152602001600282015481526020016003820160009054906101000a900460ff1615151515815260200160048201548152505081526020019060010190611caa565b50505050905090565b60045481565b600a8181548110611d3e57600080fd5b90600052602060002090600302016000915090508060000160009054906101000a900473ffffffffffffffffffffffffffffffffffffffff16908060010154908060020154905083565b600d602052806000526040600020600091509050806000015490806001018054611db190612ff9565b80601f0160208091040260200160405190810160405280929190818152602001828054611ddd90612ff9565b8015611e2a5780601f10611dff57610100808354040283529160200191611e2a565b820191906000526020600020905b815481529060010190602001808311611e0d57829003601f168201915b505050505090806002018054611e3f90612ff9565b80601f0160208091040260200160405190810160405280929190818152602001828054611e6b90612ff9565b8015611eb85780601f10611e8d57610100808354040283529160200191611eb8565b820191906000526020600020905b815481529060010190602001808311611e9b57829003601f168201915b5050505050905083565b6000600b6000600c600085815260200190815260200160002060009054906101000a900473ffffffffffffffffffffffffffffffffffffffff1673ffffffffffffffffffffffffffffffffffffffff1673ffffffffffffffffffffffffffffffffffffffff16815260200190815260200160002060405180608001604052908160008201548152602001600182018054611f5b90612ff9565b80601f0160208091040260200160405190810160405280929190818152602001828054611f8790612ff9565b8015611fd45780601f10611fa957610100808354040283529160200191611fd4565b820191906000526020600020905b815481529060010190602001808311611fb757829003601f168201915b50505050508152602001600282015481526020016003820180548060200260200160405190810160405280929190818152602001828054801561203657602002820191906000526020600020905b815481526020019060010190808311612022575b505050505081525050905060005b6008805490508110156120ed578260018261205f9190612e5a565b14156120da57816008828154811061207a57612079613132565b5b90600052602060002090600402016000820151816000015560208201518160010190805190602001906120ae9291906120f2565b506040820151816002015560608201518160030190805190602001906120d5929190612257565b509050505b80806120e59061305c565b915050612044565b505050565b8280546120fe90612ff9565b90600052602060002090601f0160209004810192826121205760008555612167565b82601f1061213957805160ff1916838001178555612167565b82800160010185558215612167579182015b8281111561216657825182559160200191906001019061214b565b5b50905061217491906122a4565b5090565b82805461218490612ff9565b90600052602060002090601f0160209004810192826121a657600085556121f4565b82601f106121b757805485556121f4565b828001600101855582156121f457600052602060002091601f016020900482015b828111156121f35782548255916001019190600101906121d8565b5b50905061220191906122a4565b5090565b8280548282559060005260206000209081019282156122465760005260206000209182015b8281111561224557825482559160010191906001019061222a565b5b50905061225391906122a4565b5090565b828054828255906000526020600020908101928215612293579160200282015b82811115612292578251825591602001919060010190612277565b5b5090506122a091906122a4565b5090565b5b808211156122bd5760008160009055506001016122a5565b5090565b60006122d46122cf84612cdf565b612cba565b9050828152602081018484840111156122f0576122ef613195565b5b6122fb848285612fb7565b509392505050565b60008135905061231281613207565b92915050565b6000815190506123278161321e565b92915050565b600082601f83011261234257612341613190565b5b81356123528482602086016122c1565b91505092915050565b60008135905061236a81613235565b92915050565b6000602082840312156123865761238561319f565b5b600061239484828501612303565b91505092915050565b600080604083850312156123b4576123b361319f565b5b60006123c285828601612303565b92505060206123d38582860161235b565b9150509250929050565b6000602082840312156123f3576123f261319f565b5b600061240184828501612318565b91505092915050565b600080604083850312156124215761242061319f565b5b600083013567ffffffffffffffff81111561243f5761243e61319a565b5b61244b8582860161232d565b925050602061245c85828601612303565b9150509250929050565b60008060006060848603121561247f5761247e61319f565b5b600084013567ffffffffffffffff81111561249d5761249c61319a565b5b6124a98682870161232d565b935050602084013567ffffffffffffffff8111156124ca576124c961319a565b5b6124d68682870161232d565b92505060406124e78682870161235b565b9150509250925092565b6000602082840312156125075761250661319f565b5b60006125158482850161235b565b91505092915050565b600080604083850312156125355761253461319f565b5b60006125438582860161235b565b92505060206125548582860161235b565b9150509250929050565b600061256a83836128c6565b905092915050565b600061257e838361291d565b60a08301905092915050565b60006125968383612985565b60608301905092915050565b60006125ae83836129c7565b905092915050565b60006125c28383612a31565b60208301905092915050565b6125d781612f6f565b82525050565b6125e681612f6f565b82525050565b60006125f782612d60565b6126018185612de3565b93508360208202850161261385612d10565b8060005b8581101561264f5784840389528151612630858261255e565b945061263b83612da2565b925060208a01995050600181019050612617565b50829750879550505050505092915050565b600061266c82612d6b565b6126768185612df4565b935061268183612d20565b8060005b838110156126b25781516126998882612572565b97506126a483612daf565b925050600181019050612685565b5085935050505092915050565b60006126ca82612d76565b6126d48185612e05565b93506126df83612d30565b8060005b838110156127105781516126f7888261258a565b975061270283612dbc565b9250506001810190506126e3565b5085935050505092915050565b600061272882612d81565b6127328185612e16565b93508360208202850161274485612d40565b8060005b85811015612780578484038952815161276185826125a2565b945061276c83612dc9565b925060208a01995050600181019050612748565b50829750879550505050505092915050565b600061279d82612d8c565b6127a78185612e27565b93506127b283612d50565b8060005b838110156127e35781516127ca88826125b6565b97506127d583612dd6565b9250506001810190506127b6565b5085935050505092915050565b6127f981612f81565b82525050565b61280881612f81565b82525050565b600061281982612d97565b6128238185612e38565b9350612833818560208601612fc6565b61283c816131a4565b840191505092915050565b600061285282612d97565b61285c8185612e49565b935061286c818560208601612fc6565b612875816131a4565b840191505092915050565b600061288d601683612e49565b9150612898826131b5565b602082019050919050565b60006128b0601283612e49565b91506128bb826131de565b602082019050919050565b60006060830160008301516128de6000860182612a31565b50602083015184820360208601526128f6828261280e565b91505060408301518482036040860152612910828261280e565b9150508091505092915050565b60a0820160008201516129336000850182612a31565b5060208201516129466020850182612a31565b5060408201516129596040850182612a31565b50606082015161296c60608501826127f0565b50608082015161297f6080850182612a31565b50505050565b60608201600082015161299b60008501826125ce565b5060208201516129ae6020850182612a31565b5060408201516129c16040850182612a31565b50505050565b60006080830160008301516129df6000860182612a31565b50602083015184820360208601526129f7828261280e565b9150506040830151612a0c6040860182612a31565b5060608301518482036060860152612a248282612792565b9150508091505092915050565b612a3a81612fad565b82525050565b612a4981612fad565b82525050565b6000602082019050612a6460008301846125dd565b92915050565b6000606082019050612a7f60008301866125dd565b612a8c60208301856125dd565b612a996040830184612a40565b949350505050565b6000604082019050612ab660008301856125dd565b612ac36020830184612a40565b9392505050565b6000606082019050612adf60008301866125dd565b612aec6020830185612a40565b612af96040830184612a40565b949350505050565b60006020820190508181036000830152612b1b81846125ec565b905092915050565b60006020820190508181036000830152612b3d8184612661565b905092915050565b60006020820190508181036000830152612b5f81846126bf565b905092915050565b60006020820190508181036000830152612b81818461271d565b905092915050565b60006020820190508181036000830152612ba281612880565b9050919050565b60006020820190508181036000830152612bc2816128a3565b9050919050565b6000602082019050612bde6000830184612a40565b92915050565b6000606082019050612bf96000830186612a40565b8181036020830152612c0b8185612847565b90508181036040830152612c1f8184612847565b9050949350505050565b6000606082019050612c3e6000830186612a40565b8181036020830152612c508185612847565b9050612c5f6040830184612a40565b949350505050565b600060a082019050612c7c6000830188612a40565b612c896020830187612a40565b612c966040830186612a40565b612ca360608301856127ff565b612cb06080830184612a40565b9695505050505050565b6000612cc4612cd5565b9050612cd0828261302b565b919050565b6000604051905090565b600067ffffffffffffffff821115612cfa57612cf9613161565b5b612d03826131a4565b9050602081019050919050565b6000819050602082019050919050565b6000819050602082019050919050565b6000819050602082019050919050565b6000819050602082019050919050565b6000819050602082019050919050565b600081519050919050565b600081519050919050565b600081519050919050565b600081519050919050565b600081519050919050565b600081519050919050565b6000602082019050919050565b6000602082019050919050565b6000602082019050919050565b6000602082019050919050565b6000602082019050919050565b600082825260208201905092915050565b600082825260208201905092915050565b600082825260208201905092915050565b600082825260208201905092915050565b600082825260208201905092915050565b600082825260208201905092915050565b600082825260208201905092915050565b6000612e6582612fad565b9150612e7083612fad565b9250827fffffffffffffffffffffffffffffffffffffffffffffffffffffffffffffffff03821115612ea557612ea46130a5565b5b828201905092915050565b6000612ebb82612fad565b9150612ec683612fad565b925082612ed657612ed56130d4565b5b828204905092915050565b6000612eec82612fad565b9150612ef783612fad565b9250817fffffffffffffffffffffffffffffffffffffffffffffffffffffffffffffffff0483118215151615612f3057612f2f6130a5565b5b828202905092915050565b6000612f4682612fad565b9150612f5183612fad565b925082821015612f6457612f636130a5565b5b828203905092915050565b6000612f7a82612f8d565b9050919050565b60008115159050919050565b600073ffffffffffffffffffffffffffffffffffffffff82169050919050565b6000819050919050565b82818337600083830152505050565b60005b83811015612fe4578082015181840152602081019050612fc9565b83811115612ff3576000848401525b50505050565b6000600282049050600182168061301157607f821691505b6020821081141561302557613024613103565b5b50919050565b613034826131a4565b810181811067ffffffffffffffff8211171561305357613052613161565b5b80604052505050565b600061306782612fad565b91507fffffffffffffffffffffffffffffffffffffffffffffffffffffffffffffffff82141561309a576130996130a5565b5b600182019050919050565b7f4e487b7100000000000000000000000000000000000000000000000000000000600052601160045260246000fd5b7f4e487b7100000000000000000000000000000000000000000000000000000000600052601260045260246000fd5b7f4e487b7100000000000000000000000000000000000000000000000000000000600052602260045260246000fd5b7f4e487b7100000000000000000000000000000000000000000000000000000000600052603260045260246000fd5b7f4e487b7100000000000000000000000000000000000000000000000000000000600052604160045260246000fd5b600080fd5b600080fd5b600080fd5b600080fd5b6000601f19601f8301169050919050565b7f4f6e6c79206f776e65722063616e20646f207468697300000000000000000000600082015250565b7f4e6f7420656e6f7567687420746f6b656e730000000000000000000000000000600082015250565b61321081612f6f565b811461321b57600080fd5b50565b61322781612f81565b811461323257600080fd5b50565b61323e81612fad565b811461324957600080fd5b5056fea2646970667358221220ff3b15b52be0ca80ccfe8d71bb3f84b1130de5e89dae322898151c17bbdf8e5464736f6c63430008050033",
  "immutableReferences": {},
  "source": "pragma solidity ^0.8.5;\npragma experimental ABIEncoderV2;\n\nimport \"./IERC20.sol\";\n\ncontract BuyCars {\n    \n    \n    address public owner;\n    address public bonusTokenAddress;\n    address public accounter;\n    \n    event createOrderEvent(uint _tokens);\n    \n    constructor(address _btkaddr) {\n        owner = msg.sender;\n        bonusTokenAddress = _btkaddr;\n        accounter = owner;\n    }\n    \n    \n    modifier onlyOwner() {\n        require(owner == msg.sender, \"Only owner can do this\");\n        _;\n    }\n    \n    \n    uint public UserID;\n    uint public CarID;\n    uint public OrderID;\n    uint public ServicesOrderID;\n\n    \n    \n    struct car {\n        uint price;\n        string brand;\n        string model;\n    }\n\n    \n    struct order {\n        uint userID;\n        uint carID;\n        uint date;\n        bool active;\n        uint tokens;\n    }\n\n    struct serviceOrder {\n        address userAddress;\n        uint price;\n        uint date;\n    }\n    \n    struct user {\n        uint userID;\n        string name;\n        uint tokens;\n        uint[] orders;\n    }\n\n    car[] public CarList;\n    user[] public UserList;\n    order[] public OrderList;\n    serviceOrder[] public ServiceOrderList;\n\n    \n    mapping(address => user) public Users;\n    mapping(uint => address) public UserIDs;\n    mapping(uint => car) public Cars;\n    mapping(uint => order) public Orders;\n    mapping(uint => serviceOrder) public ServicesOrders;\n    \n    \n    //FUNCTIONS\n    \n    //Function for adding users to smart contract\n    \n    function setBonusTokenAddress(address _address) public onlyOwner {\n        bonusTokenAddress = _address;\n    }\n\n    function addAccounter (address _address) public onlyOwner {\n        accounter = _address;\n    }\n    \n    \n    function addUser(string memory _name, address _userAddress) public onlyOwner {\n        UserID += 1;\n        Users[_userAddress].name = _name;\n        Users[_userAddress].userID = UserID;\n        UserIDs[UserID] = _userAddress;   // UserIDs [1] <= UserID += 1;\n        UserList.push(Users[_userAddress]); //UserList [0] index = UserID - 1\n    }\n    \n    function addCar(string memory _brand, string memory _model, uint _price) public onlyOwner {\n        CarID += 1;\n        Cars[CarID].brand = _brand;\n        Cars[CarID].model = _model;\n        Cars[CarID].price = _price;\n        CarList.push(Cars[CarID]);\n    }\n\n    function viewCarsList() public  view returns(car[] memory) {\n        return CarList;\n    }\n\n    function viewUserList() public view returns(user[] memory) {\n        return UserList;\n    }\n\n    function viewOrderList() public view returns(order[] memory) {\n        return OrderList;\n    }\n\n    function viewServiceOrderList() public view returns(serviceOrder[] memory) {\n        return ServiceOrderList;\n    }\n\n\n    function changeUsersTokensInList(uint _user_id) internal {\n        user memory _user_for_change = Users[UserIDs[_user_id]];\n        for (uint i; i < UserList.length; i++) {\n\n            if ((i+1) == _user_id) {\n                UserList[i] = _user_for_change;\n            }\n        }\n    }\n     \n    \n    function createOrder(uint _car_id, uint _user_id) public onlyOwner {\n        OrderID += 1;\n        Orders[OrderID].userID = _user_id;\n        Orders[OrderID].carID = _car_id;\n        Orders[OrderID].date = block.timestamp;\n        Orders[OrderID].active = true;\n        address _user_address = UserIDs[_user_id];\n        Users[_user_address].orders.push(OrderID);\n        uint _tokens = Cars[_car_id].price/100; \n        Orders[OrderID].tokens = _tokens;\n        Users[_user_address].tokens = _tokens;\n        IERC20 _bonusToken = IERC20(bonusTokenAddress);\n        _bonusToken.mint(_user_address, _tokens * 10 ** 18);\n        emit createOrderEvent(_tokens);  \n        OrderList.push(Orders[OrderID]);\n\n        changeUsersTokensInList(_user_id);\n    }\n\n    function createServiceOrder (address _address, uint _price) public onlyOwner {\n        ServicesOrderID += 1;\n        ServicesOrders[ServicesOrderID].userAddress = _address;\n        ServicesOrders[ServicesOrderID].price = _price;\n        ServicesOrders[ServicesOrderID].date = block.timestamp;\n        ServiceOrderList.push(ServicesOrders[ServicesOrderID]);\n        IERC20(bonusTokenAddress).burn(_address, _price * 10 ** 18);\n        Users[_address].tokens -= _price;\n        uint _user_id = Users[_address].userID;\n        changeUsersTokensInList(_user_id);\n    }\n\n    /*\n    function checkUserTokens(uint _order_id, uint _user_id) public onlyOwner {\n\n    }\n    */\n\n    function payByTokens(uint _servOrder_id) public {\n        uint _serviceAmount = ServicesOrders[_servOrder_id].price;\n        require(Users[msg.sender].tokens >= _serviceAmount, \"Not enought tokens\");\n        IERC20 _bon_token = IERC20(bonusTokenAddress);\n        _bon_token.transferFrom(msg.sender, accounter, _serviceAmount * 10 ** 18);\n        Users[msg.sender].tokens -= _serviceAmount;\n    }\n\n    \n    \n    \n    \n}",
  "sourcePath": "/Volumes/Disk D/My Documents/iOS Development/Bitbucket/SOLIDITY/SolidityCars/contracts/BuyCars.sol",
  "compiler": {
    "name": "solc",
    "version": "0.8.5+commit.a4f2e591.Emscripten.clang"
  },
  "schemaVersion": "3.4.1",
  "updatedAt": "2021-07-28T15:41:55.578Z",
  "networkType": "ethereum",
  "devdoc": {
    "kind": "dev",
    "methods": {},
    "version": 1
  },
  "userdoc": {
    "kind": "user",
    "methods": {},
    "version": 1
  }
}